{"abi":[{"type":"constructor","inputs":[],"stateMutability":"nonpayable"},{"type":"receive","stateMutability":"payable"},{"type":"function","name":"Prize","inputs":[{"name":"","type":"address","internalType":"address"}],"outputs":[{"name":"","type":"uint256","internalType":"uint256"}],"stateMutability":"view"},{"type":"function","name":"Quizes","inputs":[{"name":"","type":"uint256","internalType":"uint256"}],"outputs":[{"name":"id","type":"uint256","internalType":"uint256"},{"name":"question","type":"string","internalType":"string"},{"name":"answer","type":"string","internalType":"string"},{"name":"min_bet","type":"uint256","internalType":"uint256"},{"name":"max_bet","type":"uint256","internalType":"uint256"}],"stateMutability":"view"},{"type":"function","name":"addQuiz","inputs":[{"name":"q","type":"tuple","internalType":"struct Quiz.Quiz_item","components":[{"name":"id","type":"uint256","internalType":"uint256"},{"name":"question","type":"string","internalType":"string"},{"name":"answer","type":"string","internalType":"string"},{"name":"min_bet","type":"uint256","internalType":"uint256"},{"name":"max_bet","type":"uint256","internalType":"uint256"}]}],"outputs":[],"stateMutability":"nonpayable"},{"type":"function","name":"betToPlay","inputs":[{"name":"quizId","type":"uint256","internalType":"uint256"}],"outputs":[],"stateMutability":"payable"},{"type":"function","name":"bets","inputs":[{"name":"","type":"uint256","internalType":"uint256"},{"name":"","type":"address","internalType":"address"}],"outputs":[{"name":"","type":"uint256","internalType":"uint256"}],"stateMutability":"view"},{"type":"function","name":"claim","inputs":[],"outputs":[],"stateMutability":"nonpayable"},{"type":"function","name":"getAnswer","inputs":[{"name":"quizId","type":"uint256","internalType":"uint256"}],"outputs":[{"name":"","type":"string","internalType":"string"}],"stateMutability":"view"},{"type":"function","name":"getQuiz","inputs":[{"name":"quizId","type":"uint256","internalType":"uint256"}],"outputs":[{"name":"","type":"tuple","internalType":"struct Quiz.Quiz_item","components":[{"name":"id","type":"uint256","internalType":"uint256"},{"name":"question","type":"string","internalType":"string"},{"name":"answer","type":"string","internalType":"string"},{"name":"min_bet","type":"uint256","internalType":"uint256"},{"name":"max_bet","type":"uint256","internalType":"uint256"}]}],"stateMutability":"view"},{"type":"function","name":"getQuizNum","inputs":[],"outputs":[{"name":"","type":"uint256","internalType":"uint256"}],"stateMutability":"view"},{"type":"function","name":"isEqual","inputs":[{"name":"str1","type":"string","internalType":"string"},{"name":"str2","type":"string","internalType":"string"}],"outputs":[{"name":"","type":"bool","internalType":"bool"}],"stateMutability":"pure"},{"type":"function","name":"owner","inputs":[],"outputs":[{"name":"","type":"address","internalType":"address"}],"stateMutability":"view"},{"type":"function","name":"renounceOwnership","inputs":[],"outputs":[],"stateMutability":"nonpayable"},{"type":"function","name":"solveQuiz","inputs":[{"name":"quizId","type":"uint256","internalType":"uint256"},{"name":"ans","type":"string","internalType":"string"}],"outputs":[{"name":"","type":"bool","internalType":"bool"}],"stateMutability":"nonpayable"},{"type":"function","name":"transferOwnership","inputs":[{"name":"newOwner","type":"address","internalType":"address"}],"outputs":[],"stateMutability":"nonpayable"},{"type":"function","name":"vault_balance","inputs":[],"outputs":[{"name":"","type":"uint256","internalType":"uint256"}],"stateMutability":"view"},{"type":"event","name":"OwnershipTransferred","inputs":[{"name":"previousOwner","type":"address","indexed":true,"internalType":"address"},{"name":"newOwner","type":"address","indexed":true,"internalType":"address"}],"anonymous":false},{"type":"error","name":"OwnableInvalidOwner","inputs":[{"name":"owner","type":"address","internalType":"address"}]},{"type":"error","name":"OwnableUnauthorizedAccount","inputs":[{"name":"account","type":"address","internalType":"address"}]}],"bytecode":{"object":"0x608060405234801561000f575f5ffd5b50338061003657604051631e4fbdf760e01b81525f60048201526024015b60405180910390fd5b61003f816100de565b5061006f6040518060a001604052805f815260200160608152602001606081526020015f81526020015f81525090565b60018082526040805180820182526005815264312b313d3f60d81b6020808301919091528085019190915281518083018352928352601960f91b90830152820152670de0b6b3a76400006060820152671bc16d674ec8000060808201526100d58161012d565b51600555610313565b5f80546001600160a01b038381166001600160a01b0319831681178455604051919092169283917f8be0079c531659141344cd1fd0a4f28419497f9722a3daafe3b4186f6b6457e09190a35050565b610135610193565b80515f908152600260209081526040909120825181559082015182919060018201906101619082610259565b50604082015160028201906101769082610259565b506060820151600382015560809091015160049091015551600555565b5f546001600160a01b031633146101bf5760405163118cdaa760e01b815233600482015260240161002d565b565b634e487b7160e01b5f52604160045260245ffd5b600181811c908216806101e957607f821691505b60208210810361020757634e487b7160e01b5f52602260045260245ffd5b50919050565b601f82111561025457805f5260205f20601f840160051c810160208510156102325750805b601f840160051c820191505b81811015610251575f815560010161023e565b50505b505050565b81516001600160401b03811115610272576102726101c1565b6102868161028084546101d5565b8461020d565b6020601f8211600181146102b8575f83156102a15750848201515b5f19600385901b1c1916600184901b178455610251565b5f84815260208120601f198516915b828110156102e757878501518255602094850194600190920191016102c7565b508482101561030457868401515f19600387901b60f8161c191681555b50505050600190811b01905550565b6111d9806103205f395ff3fe6080604052600436106100e7575f3560e01c80638da5cb5b11610087578063c0da916f11610057578063c0da916f14610295578063f101b3f1146102b7578063f2fde38b146102d6578063f644b3bb146102f5575f5ffd5b80638da5cb5b146102025780638f7b096114610228578063a3f7e0961461023d578063b5ab58dc14610269575f5ffd5b806354c63f82116100c257806354c63f8214610183578063641a473514610196578063715018a6146101cf5780637487361f146101e3575f5ffd5b8063465c4105146101095780634e71d92d1461013d57806351d8c47714610153575f5ffd5b36610105573460045f8282546100fd9190610c92565b925050819055005b5f5ffd5b348015610114575f5ffd5b50610128610123366004610d6d565b610314565b60405190151581526020015b60405180910390f35b348015610148575f5ffd5b5061015161036d565b005b34801561015e575f5ffd5b5061017261016d366004610dd2565b610414565b604051610134959493929190610e17565b610151610191366004610dd2565b61054e565b3480156101a1575f5ffd5b506101c16101b0366004610e6c565b60036020525f908152604090205481565b604051908152602001610134565b3480156101da575f5ffd5b50610151610663565b3480156101ee575f5ffd5b506101286101fd366004610e8c565b610676565b34801561020d575f5ffd5b505f546040516001600160a01b039091168152602001610134565b348015610233575f5ffd5b506101c160045481565b348015610248575f5ffd5b5061025c610257366004610dd2565b6108e9565b6040516101349190610eba565b348015610274575f5ffd5b50610288610283366004610dd2565b610a8b565b6040516101349190610f1d565b3480156102a0575f5ffd5b506005545f908152600260205260409020546101c1565b3480156102c2575f5ffd5b506101516102d1366004610f2f565b610b35565b3480156102e1575f5ffd5b506101516102f0366004610e6c565b610b9b565b348015610300575f5ffd5b506101c161030f366004610fe6565b610bd8565b5f816040516020016103269190611010565b604051602081830303815290604052805190602001208360405160200161034d9190611010565b604051602081830303815290604052805190602001201490505b92915050565b335f81815260036020526040808220805490839055905190929083908381818185875af1925050503d805f81146103bf576040519150601f19603f3d011682016040523d82523d5f602084013e6103c4565b606091505b50509050806104105760405162461bcd60e51b8152602060048201526013602482015272115512081d1c985b9cd9995c8819985a5b1959606a1b60448201526064015b60405180910390fd5b5050565b60026020525f90815260409020805460018201805491929161043590611026565b80601f016020809104026020016040519081016040528092919081815260200182805461046190611026565b80156104ac5780601f10610483576101008083540402835291602001916104ac565b820191905f5260205f20905b81548152906001019060200180831161048f57829003601f168201915b5050505050908060020180546104c190611026565b80601f01602080910402602001604051908101604052809291908181526020018280546104ed90611026565b80156105385780601f1061050f57610100808354040283529160200191610538565b820191905f5260205f20905b81548152906001019060200180831161051b57829003601f168201915b5050505050908060030154908060040154905085565b5f818152600260205260409020600301543410156105ae5760405162461bcd60e51b815260206004820152601c60248201527f49742068617320657863656564656420746865206d696e696d756d2e000000006044820152606401610407565b5f8181526002602052604090206004015434111561060e5760405162461bcd60e51b815260206004820152601c60248201527f49742068617320657863656564656420746865206d6178696d756d2e000000006044820152606401610407565b60018054810181555f8190523490610626818461105e565b8154811061063657610636611071565b5f9182526020808320338452909101905260408120805490919061065b908490610c92565b909155505050565b61066b610c03565b6106745f610c2f565b565b5f6001610683818561105e565b8154811061069357610693611071565b5f9182526020808320338452909101905260409020546106b4906002611085565b60045410156106fd5760405162461bcd60e51b81526020600482015260156024820152747661756c745f62616c616e6365206973206c61636b60581b6044820152606401610407565b5f838152600260208190526040822001805461079f919061071d90611026565b80601f016020809104026020016040519081016040528092919081815260200182805461074990611026565b80156107945780601f1061076b57610100808354040283529160200191610794565b820191905f5260205f20905b81548152906001019060200180831161077757829003601f168201915b505050505084610314565b90508015155f036107fa5760016107b6818661105e565b815481106107c6576107c6611071565b5f91825260208083203384529091019052604081205460048054919290916107ef908490610c92565b909155506108ae9050565b6001610806818661105e565b8154811061081657610816611071565b5f918252602080832033845290910190526040902054610837906002611085565b60045f828254610847919061105e565b9091555060019050610859818661105e565b8154811061086957610869611071565b5f91825260208083203384529091019052604090205461088a906002611085565b335f90815260036020526040812080549091906108a8908490610c92565b90915550505b5f60016108bb818761105e565b815481106108cb576108cb611071565b5f918252602080832033845290910190526040902055905092915050565b6109186040518060a001604052805f815260200160608152602001606081526020015f81526020015f81525090565b5f60025f8481526020019081526020015f206040518060a00160405290815f820154815260200160018201805461094e90611026565b80601f016020809104026020016040519081016040528092919081815260200182805461097a90611026565b80156109c55780601f1061099c576101008083540402835291602001916109c5565b820191905f5260205f20905b8154815290600101906020018083116109a857829003601f168201915b505050505081526020016002820180546109de90611026565b80601f0160208091040260200160405190810160405280929190818152602001828054610a0a90611026565b8015610a555780601f10610a2c57610100808354040283529160200191610a55565b820191905f5260205f20905b815481529060010190602001808311610a3857829003601f168201915b50505091835250506003820154602080830191909152600490920154604091820152805191820181525f82528201529392505050565b6060610a95610c03565b5f828152600260208190526040909120018054610ab190611026565b80601f0160208091040260200160405190810160405280929190818152602001828054610add90611026565b8015610b285780601f10610aff57610100808354040283529160200191610b28565b820191905f5260205f20905b815481529060010190602001808311610b0b57829003601f168201915b505050505090505b919050565b610b3d610c03565b80515f90815260026020908152604090912082518155908201518291906001820190610b6990826110e8565b5060408201516002820190610b7e90826110e8565b506060820151600382015560809091015160049091015551600555565b610ba3610c03565b6001600160a01b038116610bcc57604051631e4fbdf760e01b81525f6004820152602401610407565b610bd581610c2f565b50565b60018281548110610be7575f80fd5b905f5260205f2001602052805f5260405f205f91509150505481565b5f546001600160a01b031633146106745760405163118cdaa760e01b8152336004820152602401610407565b5f80546001600160a01b038381166001600160a01b0319831681178455604051919092169283917f8be0079c531659141344cd1fd0a4f28419497f9722a3daafe3b4186f6b6457e09190a35050565b634e487b7160e01b5f52601160045260245ffd5b8082018082111561036757610367610c7e565b634e487b7160e01b5f52604160045260245ffd5b60405160a0810167ffffffffffffffff81118282101715610cdc57610cdc610ca5565b60405290565b5f82601f830112610cf1575f5ffd5b813567ffffffffffffffff811115610d0b57610d0b610ca5565b604051601f8201601f19908116603f0116810167ffffffffffffffff81118282101715610d3a57610d3a610ca5565b604052818152838201602001851015610d51575f5ffd5b816020850160208301375f918101602001919091529392505050565b5f5f60408385031215610d7e575f5ffd5b823567ffffffffffffffff811115610d94575f5ffd5b610da085828601610ce2565b925050602083013567ffffffffffffffff811115610dbc575f5ffd5b610dc885828601610ce2565b9150509250929050565b5f60208284031215610de2575f5ffd5b5035919050565b5f81518084528060208401602086015e5f602082860101526020601f19601f83011685010191505092915050565b85815260a060208201525f610e2f60a0830187610de9565b8281036040840152610e418187610de9565b60608401959095525050608001529392505050565b80356001600160a01b0381168114610b30575f5ffd5b5f60208284031215610e7c575f5ffd5b610e8582610e56565b9392505050565b5f5f60408385031215610e9d575f5ffd5b82359150602083013567ffffffffffffffff811115610dbc575f5ffd5b60208152815160208201525f602083015160a06040840152610edf60c0840182610de9565b90506040840151601f19848303016060850152610efc8282610de9565b91505060608401516080840152608084015160a08401528091505092915050565b602081525f610e856020830184610de9565b5f60208284031215610f3f575f5ffd5b813567ffffffffffffffff811115610f55575f5ffd5b820160a08185031215610f66575f5ffd5b610f6e610cb9565b81358152602082013567ffffffffffffffff811115610f8b575f5ffd5b610f9786828501610ce2565b602083015250604082013567ffffffffffffffff811115610fb6575f5ffd5b610fc286828501610ce2565b60408301525060608281013590820152608091820135918101919091529392505050565b5f5f60408385031215610ff7575f5ffd5b8235915061100760208401610e56565b90509250929050565b5f82518060208501845e5f920191825250919050565b600181811c9082168061103a57607f821691505b60208210810361105857634e487b7160e01b5f52602260045260245ffd5b50919050565b8181038181111561036757610367610c7e565b634e487b7160e01b5f52603260045260245ffd5b808202811582820484141761036757610367610c7e565b601f8211156110e357805f5260205f20601f840160051c810160208510156110c15750805b601f840160051c820191505b818110156110e0575f81556001016110cd565b50505b505050565b815167ffffffffffffffff81111561110257611102610ca5565b611116816111108454611026565b8461109c565b6020601f821160018114611148575f83156111315750848201515b5f19600385901b1c1916600184901b1784556110e0565b5f84815260208120601f198516915b828110156111775787850151825560209485019460019092019101611157565b508482101561119457868401515f19600387901b60f8161c191681555b50505050600190811b0190555056fea26469706673582212200a0b6af2d091a5b954d8110d6412e85e2da4e1a154f206757f1e368e1801e5d964736f6c634300081c0033","linkReferences":{}},"methodIdentifiers":{"Prize(address)":"641a4735","Quizes(uint256)":"51d8c477","addQuiz((uint256,string,string,uint256,uint256))":"f101b3f1","betToPlay(uint256)":"54c63f82","bets(uint256,address)":"f644b3bb","claim()":"4e71d92d","getAnswer(uint256)":"b5ab58dc","getQuiz(uint256)":"a3f7e096","getQuizNum()":"c0da916f","isEqual(string,string)":"465c4105","owner()":"8da5cb5b","renounceOwnership()":"715018a6","solveQuiz(uint256,string)":"7487361f","transferOwnership(address)":"f2fde38b","vault_balance()":"8f7b0961"},"id":20}